:020000040800F2
:10000000A005002001010008A3200008C91E000867
:10001000A1200008450900087D2600080000000016
:100020000000000000000000000000002B24000879
:100030007F09000800000000292400082D24000882
:100040001B0100081B0100081B0100081B01000820
:100050001B0100081B0100081B0100081B01000810
:100060001B0100081B0100081B01000849090008CA
:100070001B0100081B0100081B0100081B010008F0
:100080001B0100081B010008090800081B010008EB
:100090001B0100081B0100081B0100081B010008D0
:1000A0001B0100081B0100081B0100081B010008C0
:1000B0001B0100081B010008000000001B010008D4
:1000C0001B01000800000000000000001B010008E8
:1000D00000000000712600081B010008000000005D
:1000E0001B0100081B0100081B010008DFF80CD0F1
:1000F00000F026FB00480047652C0008A005002002
:100100000648804706480047FEE7FEE7FEE7FEE7B1
:10011000FEE7FEE7FEE7FEE7FEE7FEE785240008D0
:10012000ED000008202A04DB203A21FA02F0002129
:10013000704721FA02F3D040C2F1200291400843F7
:1001400019467047D2B201E000F8012B491EFBD2DC
:1001500070470022F6E710B513460A4604461946D2
:10016000FFF7F0FF204610BD421C10F8011B0029CC
:10017000FBD1801A704730B505460020034600E0E9
:100180005B1C934205D2EC5CC85C201A01D1002CA8
:10019000F6D130BD2DE9FE4F804681EA0300C00F45
:1001A0000C46009021F0004123F00045B8EB02001E
:1001B000A94105D24046214690461C460B460246C0
:1001C00023F00040104347D0270DC7F30A00C3F3C4
:1001D0000A510290401A019040286BDAC3F31300D1
:1001E00040F4801B0098924620B10023D2EB030A12
:1001F00063EB0B0B01985946C0F14002504600F0EA
:1002000037F906460D4650465946019A00F03FF927
:1002100010EB08006141002487EA115284EAE77379
:100220001A4340D0009A62B3019A012A4FEA07525A
:1002300015DC001B61EB02014FF0004202EA07529D
:10024000CDE90042001C41F5801132462B4600F0FA
:1002500076F903B0BDE8F08F40462146F9E7001B70
:1002600061EB0201001C41F5801300185B4120186E
:10027000A2F5001747EB030140EAD570B6196D41AE
:1002800011E06D084FEA360645EAC0754FEA07529D
:10029000001B61EB0201001C41F5801149084FEA87
:1002A00030000019514132462B4603B0BDE8F04FF3
:1002B00000F036B90098012240000023D0EB020282
:1002C00063EBE073009821464FEAE074B8EB00005E
:1002D00061EB0401E9E783F000435BE781F0004153
:1002E00058E72DE9F04D81EA030404F0004B21F0BA
:1002F000004514464FF0000A23F0004150EA050281
:1003000020D054EA01021DD0C5F30A570246C5F3B6
:100310001303C1F31300C1F30A5640F4801543F4EC
:100320008013A7EB0608101BD64608F2FD3873EBC6
:10033000050002D308F1010801E092185B41B8F111
:10034000000F03DA00200146BDE8F08D00204FF4D5
:100350008011064684460EE0171B73EB050705D394
:10036000121B63EB050306434CEA010C49084FEAF4
:10037000300092185B4150EA0107EDD152EA0300C8
:1003800012D082EA040083EA0501084305D0101B5D
:10039000AB4106D20122002306E000224FF00043C9
:1003A00002E06FF0010253101AEB06004CEB08510B
:1003B00010EB0A0041EB0B01BDE8F04D00F0B0B8C6
:1003C00096230022114600F07DB80EB540F233416D
:1003D00002910021CDE900110A460B4600F0AFF86A
:1003E00003B000BD20F00040C10DC0F3160040F482
:1003F00000007F2901DA00207047962903DCC1F153
:100400009601C840704796398840704701F0004314
:1004100030B421F0004150EA010206D00A0DA2F5E5
:100420006072C1F31301002A02DC30BC0020704767
:10043000440F44EAC104C100E01830BC00EBC250D4
:1004400000F037B830B50B460146002020220124C9
:1004500009E021FA02F59D4205D303FA02F5491B92
:1004600004FA02F52844151EA2F10102F1DC30BDA8
:10047000202A04DB203A00FA02F100207047914064
:10048000C2F1200320FA03F3194390407047202A59
:1004900006DBCB17203A41FA02F043EAE07306E0AC
:1004A00041FA02F3D040C2F12002914008431946BC
:1004B00070470029A8BF7047401C490008BF20F0C2
:1004C0000100704710B4B0FA80FC00FA0CF050EA5A
:1004D000010404BF10BC704749B1CCF1200421FADB
:1004E00004F411FA0CF118BF012121430843A3EBD6
:1004F0000C01CB1D4FEA00614FEA102042BF0020E3
:1005000010BC704700EBC35010440029A4BF10BCBE
:100510007047401C490008BF20F0010010BC704724
:1005200010B5141E73F1000408DA401C41F10001FB
:1005300092185B411A4301D120F0010010BD2DE952
:10054000F04D92469B4611B1B1FA81F202E0B0FA49
:1005500080F220329046FFF78BFF04460F4640EAB8
:100560000A0041EA0B0153465A46084313D011468C
:1005700053EA010019D0C8F140025046FFF7D2FDFE
:1005800005460E46504659464246FFF771FF08435E
:1005900005D0012004E020463946BDE8F08D00205A
:1005A000054346EAE0762C4337430A986305E40A9C
:1005B000A0EB08000022FD0A44EA47540A3002D5A5
:1005C00000200146E9E7010510196941DDE9084508
:1005D00000196941BDE8F04DA2E72DE9FE4F81EA1F
:1005E000030404F0004421F0004100944FF0000B9C
:1005F00023F0004350EA01045ED052EA03045BD0CA
:10060000C3F30A54C1F30A552C44A4F2F334019401
:10061000A0FB0254C1F3130141F48011C3F313038F
:1006200043F4801301FB024400FB034E840A970A43
:1006300044EA815447EA8357A4FB076802958D0A70
:1006400005FB07854FEA932C04FB0C542705029DFC
:100650004FEA065847EA1637B5EB08056EEB070C6C
:10066000870E920E47EA811742EA8312A7FB020126
:10067000B6EB0B0164EB00042B0D43EA0C335E1860
:1006800044EB1C50DA465146E7FB0201C5F3130464
:100690004FEA0B3343EA14534FEA0432019C43EA16
:1006A0000603A4F10C040294009CCDE900B4FFF70A
:1006B00046FF03B0BDE8F08F00200146F9E770B5B2
:1006C00021F0004303430CD0C1F30A550024D5EBBD
:1006D000040564EB0403D617AD1AB34102DB002016
:1006E000014670BD201841EB025170BD0EB5C10F1F
:1006F00080EAE0700844CA07002140F233438DE8E5
:100700000E000A460B46FFF71AFF03B000BD0000BB
:1007100030B5041E71F1000404DB4FF00044404288
:1007200064EB0101141E73F1000405DB1C464FF05D
:100730000043524263EB0403994208BF904230BD2C
:10074000064C074D06E0E06840F0010394E807001E
:1007500098471034AC42F6D3FFF7CCFC4838000879
:10076000683800082DE9F04D00231A461B1A8A410B
:1007700003DB00200146BDE8F08DC1F30A52C1F34E
:10078000130141F480154FF0000BD10702D100187E
:100790006D41521E0027044640F2FF11384601EB1E
:1007A000620A3E468046024600204FF48011FFF761
:1007B000B9FCC2197141BB1846EB0100B4EB030C44
:1007C00075EB000C04D3E41A65EB000517460E46E2
:1007D000241908F101006D4180463428E3DDF91940
:1007E00046EB0600091BA84103D24FF0FF32134627
:1007F00001E0002213461BEB070046EB0A51BDE85F
:10080000F04DFFF78DBE0000014800F0B5B90000C3
:10081000E800002070B5044600688168C943C90734
:100820001CD1816821F00101816000F0C9FD0546FD
:100830000FE000BF00F0C4FD401B022809D9A06AE8
:1008400040F01000A062E06A40F00100E062012088
:1008500070BD20688068C043C007EBD0002070BD29
:1008600010B50146406A826A12F0500F05D0006A46
:10087000026BBDE8104008461047816A41F40071E0
:10088000816201688968C1F3424107290CD1017B6B
:1008900051B9816A21F480718162816AC90403D4EB
:1008A000816A41F00101816200F0FCF810BD10B5D1
:1008B000406A816A41F040018162C16A41F00401ED
:1008C000C16200F058F910BD10B5406A00F052F94D
:1008D00010BD0000F8B50026044600960068816847
:1008E000C943C90728D0816841F0010181601348DC
:1008F00013490068B0FBF1F000E0401E00900028B2
:10090000FBD100F05DFD054611E000BF00F058FD91
:10091000401B02280BD9A06A40F01000A062E06AD8
:1009200040F00100E06284F824600120F8BD2068F6
:100930008068C043C007E9D10020F8BD2000002036
:1009400040420F00FEE70000014800F031BB00000C
:100950001801002030B590F840500124AC40C56B20
:100960006C60046863604368102B036803D099606F
:100970000068C26030BD9A600068C16030BD7047D9
:1009800010B50446818A0069012200F013FD0120A0
:1009900000F01EFCA18A2069BDE81040002200F092
:1009A00009BD704770470000F8B50024009490F826
:1009B00024202546012A12D0012280F824204A68EA
:1009C0001F23072A0DD20668776B521E02EB8202A4
:1009D00093409F430B6893401F43776319E00220C5
:1009E000F8BD06680D2A0AD2376BD21F02EB8202CD
:1009F00093409F430B6893401F43376309E0F76AB6
:100A00000D3A02EB820293409F430B6893401F43D1
:100A1000F7620A68072306680A2A0AD3F7680A3ABF
:100A200002EB420293409F438B6893401F43F76061
:100A300008E0376902EB420293409F438B68934082
:100A40001F4337610A68102A01D0112A20D1124BA6
:100A500002689A4217D193681B0219D4936843F431
:100A6000000393600968102912D10C490C4A0968E7
:100A7000B1FBF2F101EB8101490000E0491E009158
:100A80000029FBD104E0816A41F020018162012448
:100A900080F824502046F8BD0024014020000020AA
:100AA00040420F0030B5264D4FF4A57185B06868FF
:100AB000484340F6FF71B0FBF1F0FFF781FCA5F170
:100AC0000C0460602868FFF780FC02460B4600209B
:100AD0001C49FFF706FC1C4A1C4BFFF7FCFB0022DD
:100AE0001B4B02F049F902460B4600201949FFF75B
:100AF000F8FBFFF78BFCA0606068FFF773FC82B225
:100B000015A1684601F0BCFD00221146154801F010
:100B100025FA6946134801F013FAA068FFF762FC52
:100B200082B211A1684601F0ABFD002201210D48FF
:100B300001F014FA69460B4801F002FA05B030BD25
:100B40000C0000208098B1409A9999999999F13FA9
:100B50000000F43F00B0834054203D20253575202F
:100B6000444547002800002049203D2025357520B8
:100B70004C5558007047704710B5044600684168EE
:100B8000890626D50168890723D5A16AC90603D439
:100B9000A16A41F40071A1628168C1F34241072951
:100BA00010D1217B71B9416821F020014160A06A18
:100BB00020F48070A062A06AC00403D4A06A40F050
:100BC0000100A0622046FFF76DFF21686FF0120060
:100BD00008602068416809062ED5016849072BD5B1
:100BE000A16AC90603D4A16A41F40051A1628168D7
:100BF000C1F30231072909D04168490515D481683C
:100C0000C1F34241072910D1217B71B9416821F01C
:100C100080014160A06A20F48050A062A06AC005F3
:100C200003D4A06A40F00100A0622046FFF7BAFE9C
:100C300021686FF00C0008602068416849060DD5F6
:100C40000068C0070AD0A06A40F48030A062204645
:100C500000F094F821686FF00100086010BD0000FA
:100C60002DE9F0414FF0000704003D467ED0A06A18
:100C7000002628B9E66284F82460204600F080F857
:100C80002046FFF7C7FDA16AC90600D420B1A06ABB
:100C900040F01000A06269E0A16A21F4885141F09F
:100CA0000201A1626268E169237B0A4347EA4301CA
:100CB0000A43A1684FF48077B94209D0012907D0CF
:100CC0005FF0000194F814C0BCF1010F02D00AE0FB
:100CD0003946F7E7F3B1A36A43F02003A362E36A5E
:100CE00043F00103E3622368D3F804C02CF4694C99
:100CF0004CEA010CC3F804C021688B68DFF870C0AF
:100D000003EA0C0313438B60A168B9420BD001299D
:100D100009D00CE0DFF85CC0A3690CEB43330B4354
:100D200043F40061DFE7218A0D05A5F580152168F0
:100D3000CB6A23F470032B43CB62216889680E4B86
:100D40001940914208D1E662A16A21F0020141F006
:100D50000101A162BDE8F081A06A20F0020040F02C
:100D60001000A062E06A40F00100E0620120F1E7BB
:100D7000FDF7E1FF00E0FFFFFE0E1FFF70470000E0
:100D800070B586B00025064600950195029503953D
:100D90000068194988422CD11849886940F40070CC
:100DA0008861886900F400700490886940F004004C
:100DB00088618869694600F004000490032000906F
:100DC00001900F4800F016FA0F4C0E48C4E90005D8
:100DD0008020C4E90250800020618000C4E905053C
:100DE0002046E56100F08EF908B1FFF7DAFD3462C4
:100DF000666206B070BD0000002401400010024091
:100E00000008014008000240180100202DE9F047C9
:100E1000894604463B4900683B4F0E1D9046884278
:100E200001D0B84207D1306810F4702F03D00125EB
:100E30002846BDE8F08794F8240001280CD0012052
:100E400084F824002046FFF745FD05004FF0000020
:100E500004D084F82400EBE70220EAE7A16A40F618
:100E60000162914341F48071A1622168B94218D1B5
:100E7000326812F4702F14D0A16A41F48011A1627B
:100E80003168490505D5A16A21F4005141F480512A
:100E9000A162A16AC9040AD5E16A21F00601E162F2
:100EA00006E0A26A22F48012A2624968E9E7E062E1
:100EB00084F82400216A15488862216A1448C862AF
:100EC000216A1448086321686FF0020008602068F6
:100ED000816841F480718160216843464A464C3103
:100EE000206A00F03DF920688168C1F3424107297A
:100EF000816803D041F48011816099E741F4A00139
:100F0000FAE70000002401400028014061080008C1
:100F1000C9080008AF08000810B590F82110002497
:100F2000022903D00421816301243DE001680A689D
:100F300022F00E020A6001680A6822F001020A60CB
:100F40001A4A0168914201D1012121E0174A143265
:100F5000914201D110211BE0144A2832914201D163
:100F6000891515E0114A3C32914201D189140FE0F4
:100F70000E4A5032914202D14FF4803108E00B4AC0
:100F80006432914202D14FF4801101E04FF0807140
:100F9000064A083A5160012180F82110002180F8AA
:100FA0002010416B01B18847204610BD0800024067
:100FB0002DE9F05FC16B0C6801680B68D0F840C088
:100FC000042202FA0CF2494DDFF824A1494E4A4F9F
:100FD000DFF828B1DFF828E122422CD05A072AD5C1
:100FE0000A68920603D40A6822F004020A600168C3
:100FF000A94201D1042219E0514501D1402215E056
:10100000B14202D14FF4806210E0B94202D14FF4F4
:1010100080420BE0594502D14FF4802206E0714531
:1010200002D14FF4800201E04FF080622F4908396D
:101030004A60C16A3BE04FF0020808FA0CF818EA6F
:10104000040F4FF000094FF0010235D05FEA8378BA
:1010500032D50B689B0605D40B6823F00A030B609E
:1010600080F821200168A94201D1022219E05145EE
:1010700001D1202215E0B14202D14FF4007210E0FC
:10108000B94202D14FF400520BE0594502D14FF45E
:10109000003206E0714502D14FF4001201E04FF03A
:1010A0000072124908394A6080F82090816A00294C
:1010B0001AD0BDE8F05F0847082505FA0CF525426F
:1010C00012D01B0710D50B6823F00E030B6090F8AD
:1010D0004010C36B02FA01F15960826380F821204D
:1010E00080F82090016BE2E7BDE8F09F0800024025
:1010F0001C00024030000240440002405800024000
:101100006C00024030B528B308C8134914221944B2
:10111000B1FBF2F18900C16310498163022141777B
:101120001A6843F6F0718A43D0E900142143D0E9EC
:1011300002452C43214304692143446921438469C6
:101140002143114319600021416301224277017755
:10115000084630BD012030BDF8FFFDBF0000024051
:1011600070B5044690F82000002501280CD001201D
:1011700084F8200094F821600020012E06D084F825
:1011800020000225284670BD022070BD022684F88A
:101190002160A0632068066826F0010606602046EC
:1011A000FFF7D8FBE06A00282068016802D041F010
:1011B0000E0106E021F0040101602068016841F0A1
:1011C0000A0101602068016841F001010160D9E76E
:1011D00070B5044600F0F4F80546601C02D00448DF
:1011E0000078044400F0ECF8401BA042FAD370BD34
:1011F000140000202DE9F84FDFF89C91002409F13C
:10120000040A0AF1040B23460F270BF1040EBBE07E
:101210000125A5402A40AA4276D1DFF880C14E6858
:10122000A6EB0C0866452BD00DDC032E34D005DC74
:1012300036B3012E19D0022E2FD11BE0112E16D05D
:10124000122E2AD119E0B8F5881F19D006DCB8F59E
:10125000803F15D0B8F5801F1FD111E0B8F5001FF1
:101260000ED0B8F5041F18D10AE0CB6815E0CB68A2
:101270001B1D12E0CB6808330FE0CB680C330CE089
:101280008B682BB1012B4FF0080303D0456104E0BC
:10129000042302E0056100E00023FF2A01D806468E
:1012A00001E000F104064FEA840501D9A5F120050B
:1012B000D6F8008007FA05FC28EA0C0803FA05F5C1
:1012C00048EA0508C6F800804D68ED005BD5344D4E
:1012D000AE6946F00106AE61AD6924F0030605F083
:1012E000010500952F4D06EB050CDCF80850A6070C
:1012F000360F07FA06F825EA0805DFF8AC80404506
:1013000003D14FF0000810E03DE0DFF8A080404539
:1013100002D14FF0010808E0DFF89480404502D187
:101320004FF0020801E04FF0030808FA06F848EA17
:101330000508CCF808804D68D9F80060ED034D46EB
:1013400001D5164300E096432E604D68DAF8006040
:10135000AD03554601D5164300E096432E604D6817
:10136000DBF80060ED025D4601D5164300E09643D0
:101370002E604D68DEF80060AD02754601D516435B
:1013800000E096432E60641C0A6832FA04F57FF48C
:101390003FAFBDE8F88F00000004014000001110CD
:1013A000001002400000014000080140000C014014
:1013B000001001400AB1016170470904FBE7000019
:1013C00001488068704700001400002002488168CE
:1013D000027811448160704714000020074810B55E
:1013E000016841F010010160032000F075F8002051
:1013F00000F006F800F024F8002010BD00200240A4
:1014000070B50D4D04464FF47A712878B1FBF0F0B9
:101410000A490968B1FBF0F000F062FB48B9102CF2
:1014200007D200222146501E00F036F800206C60E2
:1014300070BD012070BD00001400002020000020BD
:101440000C4808B5816941F001018161816901F0B1
:1014500001010091C16941F08051C161C06900F092
:10146000805000900448416821F0E06141F08061C3
:10147000416008BD0010024000000140002809DB67
:1014800000F01F02012191404009800000F1E0209E
:10149000C0F8001170470000F0B40E4B1B680C46FA
:1014A000C3F30223C3F10705042D00D90425191D38
:1014B000072901D2002300E0DB1E012606FA05F110
:1014C000491E214099409E40761E16403143F0BC93
:1014D00001F0FEB80CED00E0064900F007020868D4
:1014E0004FF6FF03184040EA0220034A1043086009
:1014F000704700000CED00E00000FA052DE9F8430C
:1015000005460078354CC00754D0E0690026C0007D
:1015100008D4E06940F08050E061E069012600F005
:10152000805000902E480168C90512D40168804699
:1015300041F480710160FFF743FF074605E000BFFB
:10154000FFF73EFFC01B642823D8D8F80000C00571
:10155000F6D5206A10F4407021D0A98801F44071BA
:1015600081421CD0206A1F49012220F440700A6089
:1015700000220A602062C00711D0FFF721FF074652
:1015800041F2883808E000BFFFF71AFFC11B414550
:1015900002D90320BDE8F883206A8007F4D5206AC9
:1015A000696820F44070084320621EB1E06920F0B1
:1015B0008050E0612878800705D56068A96820F42C
:1015C0004040084360602878C00605D56068E96837
:1015D00020F48000084360600020DBE70010024038
:1015E00000700040400442422DE9F0470F460500DC
:1015F00061D0434E306800F00700B84209D230682D
:1016000020F0070038433060306800F00700B8422F
:1016100051D128683B4C810712D5400703D560683B
:1016200040F4E06060602878000703D5606840F40B
:10163000605060606068A96820F0F0000843606056
:101640002878C00728D06868012810D021680228AF
:1016500010D0890700292EDA616821F003010143C7
:101660006160FFF7ADFE804641F288390DE02168E8
:101670008903EFE78901EDE7FFF7A2FEA0EB080180
:10168000494502D90320BDE8F0876068696800F029
:101690000C00B0EB810FEFD1306800F00700B842CA
:1016A0000BD9306820F0070038433060306800F014
:1016B0000700B84201D00120E5E72878400705D5AA
:1016C0006068E96820F4E0600843606028780007FB
:1016D00006D56068296920F4605040EAC100606066
:1016E00000F038F86168084AC1F30311515CC84042
:1016F0000649086006480068FFF782FE0020C2E73E
:1017000000200240001002409C370008200000200A
:10171000180000200448054900684968044AC1F3DC
:101720000221515CC8407047200000200010024098
:10173000AC3700080448054900684968044AC1F309
:10174000C221515CC84070472000002000100240B8
:10175000AC37000812A185B00FC98DE80F0014A0A6
:10176000144A006804905168134801F00C03042BDC
:1017700010D0082B0ED1C1F38343C9031DF8030019
:101780000AD5516804AAC1F34041515C0A4A50434A
:10179000B0FBF1F005B0704708494843FAE7000094
:1017A00002030405060708090A0B0C0D0E0F1010A2
:1017B000010200000010024000127A0000093D0002
:1017C0002DE9F84F040070D02078C04DC00749D0F3
:1017D0006868C0F38100012807D06868C0F3810001
:1017E000022809D16868C00306D52868800339D566
:1017F00060680028E7D035E06068B0F5803F0BD026
:1018000010B1B0F5A02F11D0286820F480302860E6
:10181000286820F4802002E0286840F480302860A6
:10182000606890B1FFF7CCFD06460AE0286840F4F6
:1018300080202860F0E700BFFFF7C2FD801B64280E
:1018400073D828688003F7D50CE0FFF7B9FD06468A
:1018500005E000BFFFF7B4FD801B6428F0D82868BE
:101860008003F7D420789A4E80074FF001094FF09B
:10187000000839D5686810F00C0F07D06868C0F30D
:101880008100022809D16868C00306D4286880074F
:1018900014D52069012808D110E02069B0B1C6F83C
:1018A0000090FFF78DFD074605E00AE1FFF788FD90
:1018B000C01B0228C4D828688007F7D5286861694A
:1018C00020F0F80040EAC10028600DE0C6F8008072
:1018D000FFF776FD074604E0FFF772FDC01B022804
:1018E00023D828688007F7D4207800072CD57948BA
:1018F000A169D9B1C0F80090FFF762FD074604E086
:10190000FFF75EFDC01B02280FD8686A8007F7D575
:1019100071484FF4FA510068B0FBF1F0009000BF3D
:101920000098411E0091FAD20EE080E0C0F80080DD
:10193000FFF746FD074604E0FFF742FDC01B022803
:1019400075D8686A8007F7D42078400760D5E869C1
:101950000027C00008D4E86940F08050E861E869D9
:10196000012700F0805000905C480168C90513D43D
:101970000168834641F480710160FFF721FD8246D2
:1019800006E000BFFFF71CFDA0EB0A0064284ED85C
:10199000DBF80000C005F5D5E06801280AD008B1E1
:1019A000052813D0286A20F001002862286A20F058
:1019B000040002E0286A40F001002862E06841F279
:1019C000883B98B1FFF7FCFC82460BE0286A40F0A8
:1019D00004002862EEE700BFFFF7F2FCA0EB0A016B
:1019E00059455AD8286A8007F6D50CE0FFF7E8FC7D
:1019F000824605E0FFF7E4FCA0EB0A0159454CD80C
:101A0000286A8007F6D41FB1E86920F08050E861A9
:101A1000E06988B36968C1F38101022944D00228D2
:101A2000C6F8608004D0FFF7CBFC044638E034E011
:101A3000FFF7C6FC074604E0FFF7C2FCC01B022804
:101A40002BD828688001F7D4206AB0F5803F05D1F3
:101A50006868A16820F4003008436860D4E9080190
:101A60000843696821F4741108436860C6F86090FF
:101A7000FFF7A6FC044606E025E000BFFFF7A0FC48
:101A8000001B022809D828688001F7D51BE000BF99
:101A9000FFF796FC001B022802D90320BDE8F88F4F
:101AA00028688001F4D40EE00128F7D06868226A23
:101AB00000F48031914204D1616A00F470108842D0
:101AC00001D00120EAE70020E8E700000010024012
:101AD000000042428004424220000020007000408A
:101AE00010B5401EB0F1807F01D3012010BD4FF032
:101AF000E02460610F21601700F0EAFD0020A06182
:101B000007202061002010BD7047000010B504467A
:101B10000068C16821F49071C1602068416921F0BA
:101B200001014161206841694FF020024B064FF0EE
:101B300000010FD5436923F040034361606B48B156
:101B400008494163606BFFF7E7F948B1606B416B8F
:101B5000884705E0E18584F83A202046FFF7D4FF66
:101B6000002010BD972400087047000070B502687F
:101B700004461068D168536910F00F0F52D003F07B
:101B8000010501F490762E435FD0C20705D0CA0547
:101B900003D5E26B42F00102E263420705D5DA07A2
:101BA00003D0E26B42F00202E263820705D5DA0756
:101BB00003D0E26B42F00402E263020707D501F0B2
:101BC00020022A4303D0E26B42F00802E263E26B98
:101BD000002A33D0800604D5880602D5204600F0BE
:101BE00072FC20684069E16BC0F38010090700D4E3
:101BF00028B3204600F059FC2068416949061AD5EF
:101C0000416921F040014161606BA0B12D49416300
:101C1000606BFFF781F9002810D0606B416BBDE865
:101C200070400847830610D58B060ED52046BDE8C8
:101C3000704000F048BC2046FFF796FF70BD20467C
:101C4000FFF792FF0020E06370BD03062BD50B0663
:101C500029D594F839002128F6D1A068B0F5805F25
:101C600001D12069B0B1206A411C2162216800784D
:101C70004860E08C401E0004000CE084E4D1206841
:101C8000C16821F08001C1602068C16841F0400155
:101C9000C16070BD206A0088C0F308005060206AEF
:101CA000801C2062E5E74006F3D54806F1D5D168EF
:101CB000204621F04001D160202184F8391000F045
:101CC00002F970BD8724000870B5040004D094F8B0
:101CD0003900002510B106E0012070BD84F83850AD
:101CE000204600F023F8242084F839002068C168D9
:101CF00021F40051C160204600F02CFC20680169ED
:101D000021F4904101612068416921F02A0141617B
:101D10002068C16841F40051C160E563202084F867
:101D2000390084F83A00002070BD000030B585B05D
:101D30000024009401940294039400681849884296
:101D40002CD11848816941F480418161816901F495
:101D500080410491816941F0040181618069124DE3
:101D600000F0040004904FF40070009002200190F5
:101D70000320039069462846FFF73CFA2815CDE971
:101D80000004694628460294FFF734FA0022012134
:101D90002520FFF781FB2520FFF770FB05B030BD44
:101DA00000380140001002400008014090F83A302D
:101DB000202B22D1F9B1F2B190F83830012B1CD090
:101DC00081628285C2850021C163222280F83A2087
:101DD00080F838100168CA6842F48072CA600168ED
:101DE0004A6942F001024A610068C16841F020017D
:101DF000C16000207047012070470220704700003A
:101E0000642202490248FFF7D1BF0000840000208D
:101E10005C0100202DE9F843044690F839001F4684
:101E200016460D4620284CD1C5B1BEB194F83800F5
:101E3000012846D0012084F838004FF00008C4F88B
:101E40003C80212084F83900FFF7BAFAA684814645
:101E5000E684A068B0F5805F03D004E00120BDE80F
:101E6000F883206928B12E465FF0000584F8388099
:101E70000EE00026FAE78021204600F0C7FBA0B95B
:101E8000AEB116F8010B21684860E08C401EE0847A
:101E9000E08C4B464FF0000200970028EBD14FF04A
:101EA0004001204600F0B2FB30B10320D7E735F8FF
:101EB000020BC0F30800E6E7202084F83900002078
:101EC000CDE70220CBE77047FEE770B5054690F8F6
:101ED00056002024042800D0302495F858100A29F0
:101EE00001D144F0040495F85710012901D044F0C1
:101EF0000804042807D13321284600F081FE32214E
:101F0000284600F07DFE2146284600F079FE01219A
:101F1000284600F075FE95F859000C21012800D1E3
:101F20000E2195F85A00012801D141F001012846FF
:101F300000F066FE2846BDE87040062100F060BE55
:101F400070B50D460646002404E0304600F071FEF0
:101F5000641CE4B2295D0029F7D170BD08B505A362
:101F600080321B6800931DF801101144C9B200F0C3
:101F700047FE08BD004010503EB5002416480094AE
:101F800001941449029401608915816004730475F9
:101F9000022505614FF460214460C161FEF760FED7
:101FA00008B1FEF7FEFC009401240720CDE90140B2
:101FB00069460948FEF7F8FC08B1FEF7F2FC6946ED
:101FC0000548CDE90045FEF7EFFC002801D0FEF7FB
:101FD000E8FC3EBD00240140E8000020094808B5A7
:101FE000416941F0010141614069002200F00100B6
:101FF000009002210B20FFF74FFABDE808400B20AC
:10200000FFF73CBA0010024070B586B000241448B7
:102010000094019402940394816941F00401816168
:10202000816901F004010491816941F00801816135
:1020300080690C4E00F008004FF60745049000221E
:1020400029463046FFF7B6F901200095CDE9010495
:102050000320039069463046FFF7CCF806B070BD08
:1020600000100240000C01400C4810B50A49016004
:102070004FF416514160002181600C22C160C0E91B
:1020800004128161C161FFF71FFE002803D0BDE883
:102090001040FEF786BC10BD003801405C010020F6
:1020A000FEE770472DE9F04F85B07448FEF75CF805
:1020B000724E304410F8010C0A2807D03046FEF763
:1020C00053F8304410F8010C0D2879D16C48FFF713
:1020D0001DFD0A226BA16948FEF74DF86C4C0025E6
:1020E0004FF0FF38002850D012226AA16348FEF753
:1020F00042F8002853D011226BA16048FEF73BF84C
:1021000000284ED012226DA15C48FEF734F800285A
:1021100057D010226EA15948FEF72DF8002858D04C
:102120000F2270A15548FEF726F80127002855D048
:10213000112270A15148FEF71EF8002853D0112239
:1021400071A14E48FEF717F8DFF8D0B14FF480497F
:1021500000284DD00F2272A14848FEF70CF84FF42A
:10216000004A002854D0102271A14448FEF703F819
:1021700000285AD00E2273A14048FDF7FCFF00282A
:1021800060D04346112273A168E0207843460128BD
:1021900002D0082274A161E0062276A15EE0A06868
:1021A00000E06068FEF71EF982B274A1684600F094
:1021B00067FA6846FDF7D8FF82B2434669464DE0AC
:1021C00059E0607806E004226EA147E005226FA185
:1021D00044E0A07843460128F8D1F4E7277043464D
:1021E00012226CA13AE02570434614226EA135E01C
:1021F000207848B9002249465846FFF7DBF8657059
:10220000434613226EA129E04346142271A125E022
:1022100020780028F8D1002251465846FFF7CAF826
:10222000A5704346112271A118E020780028EBD157
:10223000012249465846FFF7BDF86770434612220F
:102240006FA10BE020780028DED1012251465846CC
:10225000FFF7B0F8A770434610226EA10848FFF7B9
:10226000D9FD00203554401C6428FBDB642203495F
:102270000348FFF79BFD05B0BDE8F08F8400002008
:102280005C01002041545F4765744D6F6465000038
:102290000000002041545F476574496C6C756D699E
:1022A0006E6174696F6E000041545F4765745465D8
:1022B0006D706572617475726500000041545F470E
:1022C000657453746174735F48656174657200006E
:1022D00041545F47657453746174735F4C616D70F2
:1022E0000000000041545F5365744D6F64655F41A9
:1022F00075746F0041545F5365744D6F64655F4D35
:10230000616E75616C00000041545F5475726E4FD0
:1023100066665F486561746572000000000C0140EC
:1023200041545F5475726E4F66665F4C616D70000C
:1023300041545F5475726E4F6E5F4865617465728B
:102340000000000041545F5475726E4F6E5F4C6127
:102350006D700000554E4B4E4F574E20434F4D4D24
:10236000414E440D0A0000004D616E75616C0D0A0E
:10237000000000004175746F0D0A000025750D0AFC
:10238000000000004F6E0D0A000000004F66660D51
:102390000A0000004D6F64652053657420746F203F
:1023A0004175746F0D0A00004D6F646520536574AC
:1023B00020746F204D616E75616C0D0A0000000085
:1023C000486561746572205475726E6564204F664D
:1023D000660D0A004D4F4445204953204E4F54206E
:1023E0004D414E55414C0D0A000000004C616D708E
:1023F000205475726E6564204F66660D0A000000F9
:10240000486561746572205475726E6564204F6E04
:102410000D0A00004C616D70205475726E65642069
:102420004F6E0D0A0000000070477047FEF7CEBFE8
:1024300030B593B028216846FDF78BFE14210AA819
:10244000FDF787FE002401200F94022504900095DB
:102450001020119405901094129407946846FFF789
:10246000AFF90F20CDE90A040C940D9400210AA8BD
:102470000E94FFF7B9F80FA80F951194FFF73EF8E7
:1024800013B030BD704710B5406A0021C185C184CA
:10249000FFF76AFB10BD10B5406A0021C1852021FD
:1024A00080F83A10FFF730FB10BD0168CA6822F4CB
:1024B0009072CA6001684A6922F001024A612021D3
:1024C00080F83A10704710B590F83A10222901D0E0
:1024D000022010BD82684FF480539A4201D10169F5
:1024E00021B1816A9A421BD04AB10AE00268816A2E
:1024F0005268C2F308020A80816A891C08E00269F6
:1025000072B10268526802F07F020A70816A491C47
:102510008162C18D491E0904090CC18503D016E0F2
:1025200002685268F1E70168CA6822F02002CA60B6
:102530000168CA6822F48072CA6001684A6922F0A0
:1025400001024A61202180F83A10FFF759FC00206F
:1025500010BD000070B5044600680169E26821F40E
:102560004051114301612169A06808436169084332
:102570002168CA6841F20C639A430243CA6020682A
:102580004169A26921F44071114341611E492068EB
:10259000884202D1FFF7CEF801E0FFF7BBF800EB6D
:1025A000C00101EB0012606864218000B2FBF0F30F
:1025B000B3FBF1F36FF018067343B2FBF0F5B2FB17
:1025C000F0F605EB8305322303EB0515B5FBF1F5BA
:1025D000B6FBF1F605F0F00505EB0615B2FBF0F6DB
:1025E000B2FBF0F0B0FBF1F06FF01802504306EBD5
:1025F000800003EB0010B0FBF1F0216800F00F0049
:102600002844886070BD0000003801402DE9F04189
:10261000984617460E460446069D1DE0681C1BD0D2
:102620002DB1FEF7CDFEA0EB0800A84214D920681A
:10263000C16821F4D071C1602068416921F00101B5
:102640004161202084F8390084F83A00002084F8A1
:1026500038000320BDE8F0812068006836EA0000F9
:1026600004D00020B842D9D00020F3E70120F9E7D8
:102670000148FFF77BBA00005C010020FEE7000084
:102680000FB4084B10B504A902AA039800F0BCF8D7
:10269000044602A9002000F058FA204610BC5DF85C
:1026A00014FB00004B2B0008490050EAC12018BF62
:1026B00004204A0D18BF40F0010040F2FF72B2EB57
:1026C000515F08BF40F00200012808BF0520704795
:1026D0000907090E002804DB00F1E02080F800144F
:1026E000704700F00F0000F1E02080F8141D7047E3
:1026F0002DE9F0414F1E00EBC7010446D1E900016E
:1027000015461E4637F006020DD02A463346FDF721
:1027100064FF7F1E04EBC703D3E90023FDF73AFDF6
:1027200037F00602F1D1022F25D0042F13D0062F47
:1027300018BFBDE8F0812A463346FDF74EFFD4E9C5
:102740000A23FDF727FD2A463346FDF746FFD4E965
:102750000823FDF71FFD2A463346FDF73EFFD4E967
:102760000623FDF717FD2A463346FDF736FFD4E969
:102770000423FDF70FFD2A463346FDF72EFFD4E96B
:102780000223FDF707FD2A463346FDF726FFD4E96D
:102790000023BDE8F041FDF7FDBC00000022134618
:1027A00010460149FDF79DBD0000F03FFDF7F2BC6A
:1027B0000022134610461146FDF793BD40F2013248
:1027C00000204FF0E041FDF77ABF0000024A0020F0
:1027D0001107FDF774BF000001FDFFFF02E008C80C
:1027E000121F08C1002AFAD170477047002001E08B
:1027F00001C1121F002AFBD1704700000149086087
:1028000070470000240000202DE9FF4F8BB0884660
:102810000546002606E025280BD0DDE90D1290477D
:102820006D1C761C28780028F5D10FB03046BDE825
:10283000F08F0024A146A2460122AE4900E00443E5
:1028400015F8013F203B02FA03F00842F7D128783F
:102850002A2810D06FF02F022878A0F13001092922
:1028600015D809EB890102EB410144F0020400EBA9
:1028700001096D1CF0E758F8041B5FEA010903D554
:1028800044F40054C9F1000944F002046D1C287896
:102890002E2817D115F8010F44F004042A280ED071
:1028A0006FF02F022878A0F1300109290AD80AEB2D
:1028B0008A0102EB410100EB010A6D1CF2E758F8B6
:1028C00004AB6D1C28786C280FD006DC4C2817D080
:1028D00068280DD06A2814D104E0742810D07A2812
:1028E0000FD10DE044F400140AE044F4801401E038
:1028F00044F440146978814202D104F580146D1CBF
:102900006D1C2878692865D006DC00288DD06328E6
:1029100027D0642806D15DE06E2808D073282AD01D
:10292000752877D0DDE90D129047761CE0E0C4F3FE
:102930000250022809D003280DD0D8F8001004282E
:102940000DD00E6008F10408D2E0D8F80010F2179C
:10295000C1E90062F6E7D8F800100E80F2E70E70C9
:10296000F0E718F8041B8DF8001000208DF8010026
:10297000EB46012003E058F804BB4FF0FF3061073D
:102980004FF0000701D40AE07F1C57450DDA87425B
:10299000FADB1BF807100029F6D106E07F1C8742FE
:1029A000FCDB1BF807100029F8D1DDE90D23A9EBAA
:1029B00007008146214600F0B1F83044C61904E012
:1029C000DDE90D121BF8010B90477F1EF8D221465E
:1029D000484688E058F8040BC4F302514FF00A0B44
:1029E000032900D100B2042900D140B2002802DA44
:1029F00040422D2102E0210505D52B218DF8241020
:102A0000012104E006E0E10710D02021F6E708AF3D
:102A1000089113E058F8040BC4F302514FF00A0B6D
:102A2000032900D180B2042900D1C0B20021EEE711
:102A30005946FDF707FD303107F8011D0028F7D191
:102A4000ADEB070000F1200B600702D524F48034C1
:102A500001E04FF0010ADA4502DDAAEB0B0000E0CD
:102A60000020824600EB0B0108980144A9EB01000D
:102A70000A90E00306D4DDE90D2321460A9800F010
:102A80004DF806444FF0000908E009A911F80900C3
:102A9000DDE90D12904709F10109761C0899894575
:102AA000F3DBE0030CD5DDE90D2321460A9800F0A5
:102AB00035F8064404E0DDE90D1230209047761C1D
:102AC000BAF10001AAF1010AF5DC05E0DDE90D1219
:102AD00017F8010B9047761CBBF10001ABF1010B1D
:102AE000F4DC0A982146DDE90D2300F005F80644E0
:102AF0006D1C97E6092801002DE9F04104460025E8
:102B00001E461746880404D405E039462020B04705
:102B10006D1C641EF9D52846BDE8F0812DE9F04111
:102B2000044600251E469046C80301D5302700E024
:102B30002027880404D505E041463846B0476D1C7F
:102B4000641EF9D52846BDE8F0810A68531C0B6065
:102B5000107070472DE9F04704460D4690F8562056
:102B600001F0010901F0020801F0040701F0080674
:102B7000006DB4F85410082A18D03246FEF71AFC3B
:102B8000B4F84C103A46A06CFEF714FCB4F84410AC
:102B90004246206CFEF70EFCA18FA06B4A46FEF762
:102BA00009FC2046BDE8F047FDF7EABE05F08002CB
:102BB000FEF700FC05F04002B4F84C10A06CFEF7E4
:102BC000F9FB05F02002B4F84410206CFEF7F2FB8C
:102BD00005F01002A18FA06BFEF7ECFBA18E324630
:102BE000206BFEF7E7FBA18D3A46A06AFEF7E2FBF9
:102BF000A18C4246206AFEF7DDFBA18BA069CDE7E0
:102C000070B50D460446818800680022FEF7D2FBAD
:102C100094F85600042805D029462046BDE87040A7
:102C2000FFF798BF29092046FFF794FF05F00F0131
:102C3000F3E770B50D460446818800680122FEF76F
:102C4000B9FB94F85600042805D029462046BDE873
:102C50007040FFF77FBF29092046FFF77BFF05F093
:102C60000F01F3E7FEF7BAFBFFF7E2FBFFF7CCF942
:102C7000FFF7B4F9FFF780F9FFF7F6F93649354C5D
:102C800001260C608E8002228C608A8104200C61F7
:102C9000888203028C638B8743020C64A1F8443062
:102CA00083028C64A1F84C30C3020C65A1F8543047
:102CB00081F8560081F85720082081F85800002537
:102CC00081F85A5081F859500846FFF7FEF822491A
:102CD00064225C312148FFF769F84FF48048204FA7
:102CE0004FF40049FFF7DEF91D4902220C311D485F
:102CF000FEF78CF838780128F4D11B4978688842AF
:102D000006DA012241462046FEF754FB7E7008E0B9
:102D10001649884208DD002241462046FEF74AFB5C
:102D20007D7038780128DDD11149B868884206DA0B
:102D3000012249462046FEF73DFBBE70D2E70D4911
:102D40008842CFDD002249462046FEF733FBBD70A6
:102D5000C8E70000000C0140280000205C010020B2
:102D600000000020E80000200000A0410000C04159
:102D70000000C8430000FA432DE9F04D1D460C4603
:102D800098B0174621F0004123F00043002814BFFB
:102D90004FF0010C4FF0000C0CEB440CFE4A0CEB16
:102DA00002064FEA620C66452BD33E0018BF01268F
:102DB00006EB45061644F94A964222D3F84A53EAEE
:102DC000070C02D0944205D148B918B00020114632
:102DD000BDE8F08D002808BF4FF0000C01D04FF087
:102DE000010C0CEB440212F5001F0AD8002F14BF8F
:102DF0004FF0010C4FF0000C0CEB450212F5001FD8
:102E000007D918B03A462B462146BDE8F04DFFF7EA
:102E1000CDBC0022DFF88CA3002CB8BF534526DAC6
:102E2000DFF884C36345A8BF022220DADFF870C34D
:102E30009C451CDCDFF874C30CEB235CBCF1140F65
:102E400008DDCCF1340627FA06FC0CFA06F6BE4281
:102E50000DD108E05FB9CCF1140623FA06FC0CFA98
:102E600006F69E4203D10CF00102C2F1020251EAC1
:102E7000000C19D1002D17DA002C18BF022A01D03E
:102E8000012A07D00220FFF7B9FC18B0BDE8F04DC9
:102E9000FFF784BC0220FFF7B1FCFFF77FFC18B0FE
:102EA00081F00041BDE8F08DB7F1000C6CD15345C5
:102EB00025D104F1804212F5801201BF00280020C4
:102EC000B74918B008BFBDE8F08DB548884207DCA7
:102ED000002DA1BF6046294618B0BDE8F08D07E07F
:102EE000281E05DA80F0004118B06046BDE8F08D7C
:102EF000AF497944D1E9000118B0BDE8F08DDFF8A1
:102F0000A0C2634525D1002D1FDA19B1514512D158
:102F1000D8B909E0002840F0EC82A24A214618B056
:102F200062F31E01BDE8F08D0020214618B060F369
:102F30001E01BDE8F08D08DA18B02346BDE8F04D5B
:102F4000024600206146FDF7CCB918B02146BDE825
:102F5000F08D514518DAB5F1804F0DD0A5F1005C28
:102F6000BCF1FF5C10D1B4F1000C0DDB18B0614670
:102F7000BDE8F04D00F0ECBB234618B00246BDE8BA
:102F8000F04D1946FDF729BB060024F0004C3BD15B
:102F9000D9B1514533D1002C06DD002DA1BF002051
:102FA000514618B0BDE8F08D002C01DD002D1BDB73
:102FB000002C13DA002D11DB012A4FF0000014BFA2
:102FC00078497C4918B0BDE8F08D022A18BF002C62
:102FD0000AD0012A08D1002C06DA0AE0002CB8BF7A
:102FE000002D11DA012A04D0002018B00146BDE8F6
:102FF000F08D18B000204FF00041BDE8F08DA1F138
:103000004050B0F17F601AD0012000EBE47050EA2C
:10301000020421D0624C521E4FF0000B104304BF3B
:103020004FF0000B644C654883427CDD644A654880
:1030300093421FDD884217DB002D25DB37E0002C93
:1030400000DA4AB1022A0CBF01204FF0FF3018B05D
:10305000BDE8F04DFDF74ABB0120FFF7CFFB18B0EC
:10306000BDE8F04DFFF7A4BB4D4A8A4202DC002DBB
:103070000ADC1CE0814202DA002D18DA04E0484B39
:10308000994220DD002D12DD0220FFF7B7FBFFF78C
:1030900095FB05460E460022534658462146FDF74D
:1030A0009CFA18B066F31E012846BDE8F08D022098
:1030B000FFF7A4FBFFF78AFB0A46214618B062F32C
:1030C0001E01BDE8F08D002230466146FDF703F990
:1030D00080460E466FF00102FDF7F1FA4FF05532CF
:1030E000394BFDF7FBF842463346FDF776FA0022EE
:1030F000364BFDF7F3F882464246334604911046BC
:103100001946FDF76AFA5246049BFDF766FA8A46AD
:1031100000904FF0C0422E4B40463146FDF75DFA1D
:103120002C4A2B4B00E027E0CDE9060151460098E0
:10313000FDF753FA82460191274A284B4046314613
:10314000FDF74BFA5246019BFDF7C5F882460B4648
:1031500002460591DDE90601FDF71CF8DDE90623CD
:10316000002688463046FDF7B6F85246059BFDF727
:10317000B5F8024600F07EB90020B1F5801F07DAED
:10318000352230466146FDF79AFA06466FF0340064
:1031900000EB215024E00000FFFF1F00FFFF0F00A5
:1031A0000000F03F0000F07F0000404301FCFFFF03
:1031B0004A0900000000F0FF0000F0BF0000E041FD
:1031C0000000F043FFFFEF3F5555D53F0000E03FC3
:1031D0004715F73FFE822B6544DF5DF80BAE543E8A
:1031E000A0F2FF300190C1F3130040F07F6141F085
:1031F00040510291FE498842D8BF002004DDFD49BC
:103200008142C8BF012001DD0D9008E000200D9033
:103210000198401C01900298A0F58010029002993C
:10322000F54878440B910D9900EBC100D0E90023DB
:103230000F9330460A920B99FDF74DF8CDE9060140
:10324000DDE90A2130460F9BFCF7A4FF02460B463E
:103250000020EA49FDF745F8059102460B4600902B
:10326000DDE90601FDF7B9F91490E5488A464FF00B
:10327000000878440299006812904FF0005040EA2C
:1032800061010D980F9B01EB804000F50021099131
:103290000A9A1298FDF71FF832460B9BFDF71EF8AD
:1032A00042465346FDF799F906460291404651467B
:1032B000099B129AFDF791F9DDE90623FDF70EF857
:1032C0003246029BFDF707F8059B009AFDF785F94A
:1032D0000091149A0490534610461946FDF77DF963
:1032E00006460246C7480B46029106217844FFF77E
:1032F000FFF9CDE90510029B324610461946FDF74D
:103300006CF9DDE90532FDF768F90591064653468B
:1033100040461946149AFCF73DFF009B049AFDF7BE
:103320005CF93246059BFCF735FFCDE905104246B6
:10333000534610461946FDF750F90022B24B029150
:103340000A90FCF727FFDDE90532FCF723FF0E4664
:103350004246AD4B4046FCF7BEFF029B0A9AFCF783
:10336000BAFFDDE90532FCF7B9FF424602910A9047
:10337000334610465146FDF730F9CDE90601534674
:10338000149A02990A98FDF728F98A460290334662
:10339000424600990498FDF720F95346029AFCF73B
:1033A000F9FE82460B4602460591DDE90601FCF76F
:1033B000F1FEDDE90623002088460646FCF78BFF78
:1033C0005246059BFCF78AFF824609914FF0604206
:1033D0008E4B30464146FDF700F9049006918C4A29
:1033E0008A4B50460999FDF7F8F882460291894ABE
:1033F000894B30464146FDF7F0F85246029BFCF7F8
:10340000C9FE864B7B440D9A03EBC203D3E900232C
:10341000FCF7C0FE0E9007910198FDF767F9059142
:10342000DDE9061382460E9A0498FCF7B3FE7C4A47
:103430007A440D9B02EBC303D3E90023009302926D
:10344000FCF7A8FE5246059BFCF7A4FE0026884622
:1034500052463046059BFCF73EFF009B029AFCF764
:103460003AFF069B049AFCF736FF079B0E9AFCF77F
:1034700035FF024600200B46029038462946FDF7EC
:10348000ACF8824601912B4638461946029AFCF761
:1034900022FF32464346FDF7A0F85246019BFCF757
:1034A00079FE07468A463246434629460298FDF78A
:1034B00094F805460E463A465346FCF76BFE594AC9
:1034C0008846914221DBA8EB020353EA000210D1A7
:1034D0002A463346FCF7FFFECDE90401524A534B1E
:1034E00038465146FCF756FEDDE90423FDF710F996
:1034F00021D20220FFF782F9FFF760F90A46214640
:1035000018B062F31E01BDE8F08D494B28F000426F
:103510009A4210D3474A08EB020353EA00027FF4B1
:10352000C6AD2A463346FCF7D6FE3A465346FDF76B
:10353000EFF87FF6BCAD0022019228F000403E4932
:103540003E4A01EB2051824223DA481C4FF480119D
:1035500021FA00F040443A4AC0F30A517A44394B08
:10356000A1F2FF31CB4020EA0303C0F3130040F483
:103570008010C1F11401C84012680190B8F1000F29
:10358000BCBF4042019028463146FCF7A4FE0546E8
:103590000E462A46334638465146FCF7FBFD4FF0AF
:1035A00000084246284B40460591FDF716F8CDE944
:1035B0000601264A264B40460599FDF70EF8009174
:1035C00002902A46334640460599FCF784FE3A4667
:1035D0005346FCF783FE1F4A1F4BFCF7FEFF009B80
:1035E000029AFCF7D7FD0746884602460B4635E0AF
:1035F0008E9803007AB60B00920500000000F03FA1
:10360000CA050000F80400000000084009C7EE3FAA
:10361000FD033ADCF5015B14E02F3EBED003000051
:103620009403000000009040FE822B654715973CF4
:1036300000CC904000346F3F01FCFFFF0000E03FF2
:10364000E0020000FFFF0F00432EE63F396CA80C9C
:10365000615C20BEEF39FAFE422EE63FDDE906014D
:10366000FCF798FDDDE9062305460E46FCF733FE20
:103670003A464346FCF732FE0F462A463346009050
:1036800010461946FCF7A9FF824602462E48884696
:103690000B4605217844FFF72BF852464346FCF7CA
:1036A0009CFF2A463346FCF719FE80468A463B4675
:1036B00028463146009AFCF790FF3B46009AFCF7FB
:1036C00069FD0691009000224FF08043404651462C
:1036D000FCF701FE0F460C90424653462846314601
:1036E000FCF77BFF3B460C9AFCF7FBFD069B009A20
:1036F000FCF7F1FD2A463346FCF7EDFD0022134BA3
:10370000FCF7ECFD054601980E4601EB005108154B
:10371000002810DC28463146019AFCF7D0FFFEF75E
:10372000C3FF042808BFFFF751F828463146019A25
:10373000FCF7C5FF05460B4618B02A4658462146F9
:10374000BDE8F04DFCF749BF800100000000F03FEC
:103750002DE9F04106460F46FDF704F8041E0D461C
:1037600018BF0120284320F00040C0F17F6000F125
:10377000E040C00F0ED0301C18BF0120384320F0AD
:103780000040C0F17F6000F1E040C00F04BF0120A5
:10379000FFF734F820462946BDE8F081000000001C
:1037A00000000000010203040607080900000000F1
:1037B0000102030400000000000000000000F03FD0
:1037C000000000000000F83F0000000000000000C2
:1037D0000000004003B8E23F0000000000000000CD
:1037E00006D0CF43EBFD4C3E033333333333E33F5B
:1037F000FFAB6FDBB66DDB3F4D268F515555D53F87
:1038000001411DA96074D13F65DBC9934A86CD3F54
:10381000EF4E454A287ECA3F3E5555555555C53F42
:1038200093BDBE166CC166BF2CDE25AF6A56113F34
:10383000F16BD2C541BDBBBED0A4BE726937663E36
:1038400000000000000000006838000800000020B0
:1038500028000000DC27000890380008280000201D
:1038600078050000EC2700080100000000000000BF
:103870000000000000000000000000000100000047
:1038800010000000000000000024F4000000000010
:04000005080000ED02
:00000001FF
